{"abi":[{"type":"constructor","inputs":[{"name":"_thresholdSigner","type":"address","internalType":"address"},{"name":"_k2Authority","type":"address","internalType":"address"},{"name":"_defaultDropWallet","type":"address","internalType":"address"},{"name":"_authWindow","type":"uint256","internalType":"uint256"},{"name":"_minDelay","type":"uint256","internalType":"uint256"}],"stateMutability":"nonpayable"},{"type":"receive","stateMutability":"payable"},{"type":"function","name":"AUTH_WINDOW","inputs":[],"outputs":[{"name":"","type":"uint256","internalType":"uint256"}],"stateMutability":"view"},{"type":"function","name":"MIN_DELAY","inputs":[],"outputs":[{"name":"","type":"uint256","internalType":"uint256"}],"stateMutability":"view"},{"type":"function","name":"authorizeTransaction","inputs":[{"name":"txHash","type":"bytes32","internalType":"bytes32"},{"name":"overrideDestination","type":"address","internalType":"address"},{"name":"k2Sig","type":"bytes","internalType":"bytes"}],"outputs":[],"stateMutability":"nonpayable"},{"type":"function","name":"defaultDropWallet","inputs":[],"outputs":[{"name":"","type":"address","internalType":"address"}],"stateMutability":"view"},{"type":"function","name":"executeTransaction","inputs":[{"name":"txHash","type":"bytes32","internalType":"bytes32"}],"outputs":[],"stateMutability":"nonpayable"},{"type":"function","name":"forwardERC20","inputs":[{"name":"token","type":"address","internalType":"address"},{"name":"authorizedTxHash","type":"bytes32","internalType":"bytes32"}],"outputs":[],"stateMutability":"nonpayable"},{"type":"function","name":"forwardERC721","inputs":[{"name":"nft","type":"address","internalType":"address"},{"name":"tokenId","type":"uint256","internalType":"uint256"},{"name":"authorizedTxHash","type":"bytes32","internalType":"bytes32"}],"outputs":[],"stateMutability":"nonpayable"},{"type":"function","name":"k2Authority","inputs":[],"outputs":[{"name":"","type":"address","internalType":"address"}],"stateMutability":"view"},{"type":"function","name":"pending","inputs":[{"name":"","type":"bytes32","internalType":"bytes32"}],"outputs":[{"name":"initiator","type":"address","internalType":"address"},{"name":"target","type":"address","internalType":"address"},{"name":"value","type":"uint256","internalType":"uint256"},{"name":"callData","type":"bytes","internalType":"bytes"},{"name":"declaredGas","type":"uint256","internalType":"uint256"},{"name":"submittedAt","type":"uint256","internalType":"uint256"},{"name":"authorized","type":"bool","internalType":"bool"},{"name":"executed","type":"bool","internalType":"bool"},{"name":"destination","type":"address","internalType":"address"}],"stateMutability":"view"},{"type":"function","name":"queueTransaction","inputs":[{"name":"target","type":"address","internalType":"address"},{"name":"value","type":"uint256","internalType":"uint256"},{"name":"data","type":"bytes","internalType":"bytes"},{"name":"declaredGas","type":"uint256","internalType":"uint256"},{"name":"nonce","type":"bytes32","internalType":"bytes32"}],"outputs":[{"name":"","type":"bytes32","internalType":"bytes32"}],"stateMutability":"nonpayable"},{"type":"function","name":"thresholdSigner","inputs":[],"outputs":[{"name":"","type":"address","internalType":"address"}],"stateMutability":"view"},{"type":"function","name":"usedNonces","inputs":[{"name":"","type":"bytes32","internalType":"bytes32"}],"outputs":[{"name":"","type":"bool","internalType":"bool"}],"stateMutability":"view"},{"type":"event","name":"AssetForwarded","inputs":[{"name":"asset","type":"address","indexed":true,"internalType":"address"},{"name":"destination","type":"address","indexed":true,"internalType":"address"},{"name":"amount","type":"uint256","indexed":false,"internalType":"uint256"}],"anonymous":false},{"type":"event","name":"ETHForwarded","inputs":[{"name":"destination","type":"address","indexed":true,"internalType":"address"},{"name":"amount","type":"uint256","indexed":false,"internalType":"uint256"}],"anonymous":false},{"type":"event","name":"NFTForwarded","inputs":[{"name":"nft","type":"address","indexed":true,"internalType":"address"},{"name":"destination","type":"address","indexed":true,"internalType":"address"},{"name":"tokenId","type":"uint256","indexed":false,"internalType":"uint256"}],"anonymous":false},{"type":"event","name":"TxAuthorized","inputs":[{"name":"txHash","type":"bytes32","indexed":true,"internalType":"bytes32"},{"name":"destination","type":"address","indexed":true,"internalType":"address"}],"anonymous":false},{"type":"event","name":"TxExecuted","inputs":[{"name":"txHash","type":"bytes32","indexed":true,"internalType":"bytes32"},{"name":"destination","type":"address","indexed":true,"internalType":"address"}],"anonymous":false},{"type":"event","name":"TxQueued","inputs":[{"name":"txHash","type":"bytes32","indexed":true,"internalType":"bytes32"},{"name":"initiator","type":"address","indexed":true,"internalType":"address"},{"name":"expiresAt","type":"uint256","indexed":false,"internalType":"uint256"}],"anonymous":false}],"bytecode":{"object":"0x610140604052348015610010575f5ffd5b5060405161320c38038061320c833981810160405281019061003291906103aa565b5f73ffffffffffffffffffffffffffffffffffffffff168573ffffffffffffffffffffffffffffffffffffffff16036100a0576040517f08c379a00000000000000000000000000000000000000000000000000000000081526004016100979061047b565b60405180910390fd5b5f73ffffffffffffffffffffffffffffffffffffffff168473ffffffffffffffffffffffffffffffffffffffff160361010e576040517f08c379a0000000000000000000000000000000000000000000000000000000008152600401610105906104e3565b60405180910390fd5b5f73ffffffffffffffffffffffffffffffffffffffff168373ffffffffffffffffffffffffffffffffffffffff160361017c576040517f08c379a00000000000000000000000000000000000000000000000000000000081526004016101739061054b565b60405180910390fd5b8373ffffffffffffffffffffffffffffffffffffffff168373ffffffffffffffffffffffffffffffffffffffff16036101ea576040517f08c379a00000000000000000000000000000000000000000000000000000000081526004016101e1906105b3565b60405180910390fd5b8181111561022d576040517f08c379a00000000000000000000000000000000000000000000000000000000081526004016102249061061b565b60405180910390fd5b8473ffffffffffffffffffffffffffffffffffffffff1660808173ffffffffffffffffffffffffffffffffffffffff16815250508373ffffffffffffffffffffffffffffffffffffffff1660a08173ffffffffffffffffffffffffffffffffffffffff16815250508273ffffffffffffffffffffffffffffffffffffffff1660c08173ffffffffffffffffffffffffffffffffffffffff16815250508161010081815250508061012081815250503073ffffffffffffffffffffffffffffffffffffffff1660e08173ffffffffffffffffffffffffffffffffffffffff16815250505050505050610639565b5f5ffd5b5f73ffffffffffffffffffffffffffffffffffffffff82169050919050565b5f6103468261031d565b9050919050565b6103568161033c565b8114610360575f5ffd5b50565b5f815190506103718161034d565b92915050565b5f819050919050565b61038981610377565b8114610393575f5ffd5b50565b5f815190506103a481610380565b92915050565b5f5f5f5f5f60a086880312156103c3576103c2610319565b5b5f6103d088828901610363565b95505060206103e188828901610363565b94505060406103f288828901610363565b935050606061040388828901610396565b925050608061041488828901610396565b9150509295509295909350565b5f82825260208201905092915050565b7f4b312072657175697265640000000000000000000000000000000000000000005f82015250565b5f610465600b83610421565b915061047082610431565b602082019050919050565b5f6020820190508181035f83015261049281610459565b9050919050565b7f4b322072657175697265640000000000000000000000000000000000000000005f82015250565b5f6104cd600b83610421565b91506104d882610499565b602082019050919050565b5f6020820190508181035f8301526104fa816104c1565b9050919050565b7f44726f702077616c6c65742072657175697265640000000000000000000000005f82015250565b5f610535601483610421565b915061054082610501565b602082019050919050565b5f6020820190508181035f83015261056281610529565b9050919050565b7f44726f702077616c6c657420213d206b320000000000000000000000000000005f82015250565b5f61059d601183610421565b91506105a882610569565b602082019050919050565b5f6020820190508181035f8301526105ca81610591565b9050919050565b7f44656c6179203c3d2077696e646f7700000000000000000000000000000000005f82015250565b5f610605600f83610421565b9150610610826105d1565b602082019050919050565b5f6020820190508181035f830152610632816105f9565b9050919050565b60805160a05160c05160e0516101005161012051612b3f6106cd5f395f81816109600152610f8e01525f818161093c01528181610ad70152818161100001526115d201525f818161042b0152818161061b0152818161098401528181610e82015261122e01525f8181610caf015261120901525f818161091801528181610ba10152610d4701525f6111e50152612b3f5ff3fe6080604052600436106100aa575f3560e01c8063b6e030b511610063578063b6e030b5146101c7578063c69ed5f2146101ef578063cdab6ce514610217578063d29b269114610241578063e57f84571461026b578063feb61724146102a7576100b1565b80631808eeb8146100b557806328acf139146100f9578063303991121461012157806331e459dc146101495780634a8bba1b146101735780639f81aed71461019d576100b1565b366100b157005b5f5ffd5b3480156100c0575f5ffd5b506100db60048036038101906100d6919061184e565b6102e3565b6040516100f09998979695949392919061195a565b60405180910390f35b348015610104575f5ffd5b5061011f600480360381019061011a9190611a40565b610429565b005b34801561012c575f5ffd5b5061014760048036038101906101429190611a90565b610619565b005b348015610154575f5ffd5b5061015d610916565b60405161016a9190611ace565b60405180910390f35b34801561017e575f5ffd5b5061018761093a565b6040516101949190611ae7565b60405180910390f35b3480156101a8575f5ffd5b506101b161095e565b6040516101be9190611ae7565b60405180910390f35b3480156101d2575f5ffd5b506101ed60048036038101906101e89190611b61565b610982565b005b3480156101fa575f5ffd5b506102156004803603810190610210919061184e565b610e80565b005b348015610222575f5ffd5b5061022b6111e3565b6040516102389190611ace565b60405180910390f35b34801561024c575f5ffd5b50610255611207565b6040516102629190611ace565b60405180910390f35b348015610276575f5ffd5b50610291600480360381019061028c9190611bd2565b61122b565b60405161029e9190611c77565b60405180910390f35b3480156102b2575f5ffd5b506102cd60048036038101906102c8919061184e565b61161f565b6040516102da9190611c90565b60405180910390f35b5f602052805f5260405f205f91509050805f015f9054906101000a900473ffffffffffffffffffffffffffffffffffffffff1690806001015f9054906101000a900473ffffffffffffffffffffffffffffffffffffffff169080600201549080600301805461035190611cd6565b80601f016020809104026020016040519081016040528092919081815260200182805461037d90611cd6565b80156103c85780601f1061039f576101008083540402835291602001916103c8565b820191905f5260205f20905b8154815290600101906020018083116103ab57829003601f168201915b505050505090806004015490806005015490806006015f9054906101000a900460ff16908060060160019054906101000a900460ff16908060060160029054906101000a900473ffffffffffffffffffffffffffffffffffffffff16905089565b7f000000000000000000000000000000000000000000000000000000000000000073ffffffffffffffffffffffffffffffffffffffff163073ffffffffffffffffffffffffffffffffffffffff16146104b7576040517f08c379a00000000000000000000000000000000000000000000000000000000081526004016104ae90611d60565b60405180910390fd5b5f5f5f8381526020019081526020015f2090508060060160019054906101000a900460ff1661051b576040517f08c379a000000000000000000000000000000000000000000000000000000000815260040161051290611dc8565b60405180910390fd5b5f8160060160029054906101000a900473ffffffffffffffffffffffffffffffffffffffff1690508473ffffffffffffffffffffffffffffffffffffffff166342842e0e3083876040518463ffffffff1660e01b815260040161058093929190611de6565b5f604051808303815f87803b158015610597575f5ffd5b505af11580156105a9573d5f5f3e3d5ffd5b505050508073ffffffffffffffffffffffffffffffffffffffff168573ffffffffffffffffffffffffffffffffffffffff167f5b3b1a627ec7623ec424f55e40853e5eaec23dfd811777c7a59dedd9dda9b9858660405161060a9190611ae7565b60405180910390a35050505050565b7f000000000000000000000000000000000000000000000000000000000000000073ffffffffffffffffffffffffffffffffffffffff163073ffffffffffffffffffffffffffffffffffffffff16146106a7576040517f08c379a000000000000000000000000000000000000000000000000000000000815260040161069e90611d60565b60405180910390fd5b5f5f5f8381526020019081526020015f2090508060060160019054906101000a900460ff1661070b576040517f08c379a000000000000000000000000000000000000000000000000000000000815260040161070290611dc8565b60405180910390fd5b5f8160060160029054906101000a900473ffffffffffffffffffffffffffffffffffffffff1690505f8473ffffffffffffffffffffffffffffffffffffffff166370a08231306040518263ffffffff1660e01b815260040161076d9190611ace565b602060405180830381865afa158015610788573d5f5f3e3d5ffd5b505050506040513d601f19601f820116820180604052508101906107ac9190611e2f565b90505f81116107f0576040517f08c379a00000000000000000000000000000000000000000000000000000000081526004016107e790611ea4565b60405180910390fd5b8473ffffffffffffffffffffffffffffffffffffffff1663a9059cbb83836040518363ffffffff1660e01b815260040161082b929190611ec2565b6020604051808303815f875af1158015610847573d5f5f3e3d5ffd5b505050506040513d601f19601f8201168201806040525081019061086b9190611f13565b6108aa576040517f08c379a00000000000000000000000000000000000000000000000000000000081526004016108a190611f88565b60405180910390fd5b8173ffffffffffffffffffffffffffffffffffffffff168573ffffffffffffffffffffffffffffffffffffffff167fd5bb9f39fa772ee3ebecb0c5e6148367ba6f2e09b14605cedf089016b0a9f034836040516109079190611ae7565b60405180910390a35050505050565b7f000000000000000000000000000000000000000000000000000000000000000081565b7f000000000000000000000000000000000000000000000000000000000000000081565b7f000000000000000000000000000000000000000000000000000000000000000081565b7f000000000000000000000000000000000000000000000000000000000000000073ffffffffffffffffffffffffffffffffffffffff163073ffffffffffffffffffffffffffffffffffffffff1614610a10576040517f08c379a0000000000000000000000000000000000000000000000000000000008152600401610a0790611d60565b60405180910390fd5b5f5f5f8681526020019081526020015f2090505f816005015403610a69576040517f08c379a0000000000000000000000000000000000000000000000000000000008152600401610a6090611ff0565b60405180910390fd5b8060060160019054906101000a900460ff16158015610a965750806006015f9054906101000a900460ff16155b610ad5576040517f08c379a0000000000000000000000000000000000000000000000000000000008152600401610acc90612058565b60405180910390fd5b7f00000000000000000000000000000000000000000000000000000000000000008160050154610b0591906120a3565b421115610b47576040517f08c379a0000000000000000000000000000000000000000000000000000000008152600401610b3e90612120565b60405180910390fd5b5f858546604051602001610b5d939291906121c3565b6040516020818303038152906040528051906020012090505f81604051602001610b879190612253565b6040516020818303038152906040528051906020012090507f000000000000000000000000000000000000000000000000000000000000000073ffffffffffffffffffffffffffffffffffffffff16610c238287878080601f0160208091040260200160405190810160405280939291908181526020018383808284375f81840152601f19601f8201169050808301925050505050505061163c565b73ffffffffffffffffffffffffffffffffffffffff1614610c79576040517f08c379a0000000000000000000000000000000000000000000000000000000008152600401610c70906122c2565b60405180910390fd5b5f5f73ffffffffffffffffffffffffffffffffffffffff168773ffffffffffffffffffffffffffffffffffffffff1603610cd3577f0000000000000000000000000000000000000000000000000000000000000000610cd5565b865b90505f73ffffffffffffffffffffffffffffffffffffffff168173ffffffffffffffffffffffffffffffffffffffff1603610d45576040517f08c379a0000000000000000000000000000000000000000000000000000000008152600401610d3c9061232a565b60405180910390fd5b7f000000000000000000000000000000000000000000000000000000000000000073ffffffffffffffffffffffffffffffffffffffff168173ffffffffffffffffffffffffffffffffffffffff1603610dd3576040517f08c379a0000000000000000000000000000000000000000000000000000000008152600401610dca90612392565b60405180910390fd5b6001846006015f6101000a81548160ff021916908315150217905550808460060160026101000a81548173ffffffffffffffffffffffffffffffffffffffff021916908373ffffffffffffffffffffffffffffffffffffffff1602179055508073ffffffffffffffffffffffffffffffffffffffff16887faa024d90a1e18d0966b38a69970d26e231333e7480d4f6b309a036216ec5d04060405160405180910390a35050505050505050565b7f000000000000000000000000000000000000000000000000000000000000000073ffffffffffffffffffffffffffffffffffffffff163073ffffffffffffffffffffffffffffffffffffffff1614610f0e576040517f08c379a0000000000000000000000000000000000000000000000000000000008152600401610f0590611d60565b60405180910390fd5b5f5f5f8381526020019081526020015f209050806006015f9054906101000a900460ff168015610f4d57508060060160019054906101000a900460ff16155b610f8c576040517f08c379a0000000000000000000000000000000000000000000000000000000008152600401610f83906123fa565b60405180910390fd5b7f00000000000000000000000000000000000000000000000000000000000000008160050154610fbc91906120a3565b421015610ffe576040517f08c379a0000000000000000000000000000000000000000000000000000000008152600401610ff590612462565b60405180910390fd5b7f0000000000000000000000000000000000000000000000000000000000000000816005015461102e91906120a3565b421115611070576040517f08c379a0000000000000000000000000000000000000000000000000000000008152600401611067906124ca565b60405180910390fd5b5f8160060160029054906101000a900473ffffffffffffffffffffffffffffffffffffffff16905060018260060160016101000a81548160ff0219169083151502179055505f826001015f9054906101000a900473ffffffffffffffffffffffffffffffffffffffff1673ffffffffffffffffffffffffffffffffffffffff1683600201548460040154908560030160405161110c9190612584565b5f60405180830381858888f193505050503d805f8114611147576040519150601f19603f3d011682016040523d82523d5f602084013e61114c565b606091505b5050905080611190576040517f08c379a0000000000000000000000000000000000000000000000000000000008152600401611187906125e4565b60405180910390fd5b611199826116a6565b8173ffffffffffffffffffffffffffffffffffffffff16847f67463294136ac1998662b2196cfd1ed48a588fc961e21c2b7fdf9b800ab6ae6860405160405180910390a350505050565b7f000000000000000000000000000000000000000000000000000000000000000081565b7f000000000000000000000000000000000000000000000000000000000000000081565b5f7f000000000000000000000000000000000000000000000000000000000000000073ffffffffffffffffffffffffffffffffffffffff163073ffffffffffffffffffffffffffffffffffffffff16146112ba576040517f08c379a00000000000000000000000000000000000000000000000000000000081526004016112b190611d60565b60405180910390fd5b60015f8381526020019081526020015f205f9054906101000a900460ff1615611318576040517f08c379a000000000000000000000000000000000000000000000000000000000815260040161130f9061264c565b60405180910390fd5b5f87878787878746604051602001611336979695949392919061269c565b6040516020818303038152906040528051906020012090506040518061012001604052803373ffffffffffffffffffffffffffffffffffffffff1681526020018973ffffffffffffffffffffffffffffffffffffffff16815260200188815260200187878080601f0160208091040260200160405190810160405280939291908181526020018383808284375f81840152601f19601f8201169050808301925050505050505081526020018581526020014281526020015f151581526020015f151581526020015f73ffffffffffffffffffffffffffffffffffffffff168152505f5f8381526020019081526020015f205f820151815f015f6101000a81548173ffffffffffffffffffffffffffffffffffffffff021916908373ffffffffffffffffffffffffffffffffffffffff1602179055506020820151816001015f6101000a81548173ffffffffffffffffffffffffffffffffffffffff021916908373ffffffffffffffffffffffffffffffffffffffff1602179055506040820151816002015560608201518160030190816114d091906128d5565b506080820151816004015560a0820151816005015560c0820151816006015f6101000a81548160ff02191690831515021790555060e08201518160060160016101000a81548160ff0219169083151502179055506101008201518160060160026101000a81548173ffffffffffffffffffffffffffffffffffffffff021916908373ffffffffffffffffffffffffffffffffffffffff1602179055509050506001805f8581526020019081526020015f205f6101000a81548160ff0219169083151502179055503373ffffffffffffffffffffffffffffffffffffffff16817f6fe349cc91d9400934dfa2378ce58074478cffec60b600f783ac1ab1f43407de7f0000000000000000000000000000000000000000000000000000000000000000426115fc91906120a3565b6040516116099190611ae7565b60405180910390a3809150509695505050505050565b6001602052805f5260405f205f915054906101000a900460ff1681565b5f5f5f5f611649856117ae565b9250925092506001868285856040515f815260200160405260405161167194939291906129bf565b6020604051602081039080840390855afa158015611691573d5f5f3e3d5ffd5b50505060206040510351935050505092915050565b5f4790505f8111156117aa575f8273ffffffffffffffffffffffffffffffffffffffff16826040516116d790612a25565b5f6040518083038185875af1925050503d805f8114611711576040519150601f19603f3d011682016040523d82523d5f602084013e611716565b606091505b505090508061175a576040517f08c379a000000000000000000000000000000000000000000000000000000000815260040161175190612a83565b60405180910390fd5b8273ffffffffffffffffffffffffffffffffffffffff167f81dbed793c44e11f6f04d977bad497142f41559ca59d2bb099fbcb1762a75493836040516117a09190611ae7565b60405180910390a2505b5050565b5f5f5f60418451146117f5576040517f08c379a00000000000000000000000000000000000000000000000000000000081526004016117ec90612aeb565b60405180910390fd5b602084015192506040840151915060608401515f1a90509193909250565b5f5ffd5b5f5ffd5b5f819050919050565b61182d8161181b565b8114611837575f5ffd5b50565b5f8135905061184881611824565b92915050565b5f6020828403121561186357611862611813565b5b5f6118708482850161183a565b91505092915050565b5f73ffffffffffffffffffffffffffffffffffffffff82169050919050565b5f6118a282611879565b9050919050565b6118b281611898565b82525050565b5f819050919050565b6118ca816118b8565b82525050565b5f81519050919050565b5f82825260208201905092915050565b8281835e5f83830152505050565b5f601f19601f8301169050919050565b5f611912826118d0565b61191c81856118da565b935061192c8185602086016118ea565b611935816118f8565b840191505092915050565b5f8115159050919050565b61195481611940565b82525050565b5f6101208201905061196e5f83018c6118a9565b61197b602083018b6118a9565b611988604083018a6118c1565b818103606083015261199a8189611908565b90506119a960808301886118c1565b6119b660a08301876118c1565b6119c360c083018661194b565b6119d060e083018561194b565b6119de6101008301846118a9565b9a9950505050505050505050565b6119f581611898565b81146119ff575f5ffd5b50565b5f81359050611a10816119ec565b92915050565b611a1f816118b8565b8114611a29575f5ffd5b50565b5f81359050611a3a81611a16565b92915050565b5f5f5f60608486031215611a5757611a56611813565b5b5f611a6486828701611a02565b9350506020611a7586828701611a2c565b9250506040611a868682870161183a565b9150509250925092565b5f5f60408385031215611aa657611aa5611813565b5b5f611ab385828601611a02565b9250506020611ac48582860161183a565b9150509250929050565b5f602082019050611ae15f8301846118a9565b92915050565b5f602082019050611afa5f8301846118c1565b92915050565b5f5ffd5b5f5ffd5b5f5ffd5b5f5f83601f840112611b2157611b20611b00565b5b8235905067ffffffffffffffff811115611b3e57611b3d611b04565b5b602083019150836001820283011115611b5a57611b59611b08565b5b9250929050565b5f5f5f5f60608587031215611b7957611b78611813565b5b5f611b868782880161183a565b9450506020611b9787828801611a02565b935050604085013567ffffffffffffffff811115611bb857611bb7611817565b5b611bc487828801611b0c565b925092505092959194509250565b5f5f5f5f5f5f60a08789031215611bec57611beb611813565b5b5f611bf989828a01611a02565b9650506020611c0a89828a01611a2c565b955050604087013567ffffffffffffffff811115611c2b57611c2a611817565b5b611c3789828a01611b0c565b94509450506060611c4a89828a01611a2c565b9250506080611c5b89828a0161183a565b9150509295509295509295565b611c718161181b565b82525050565b5f602082019050611c8a5f830184611c68565b92915050565b5f602082019050611ca35f83018461194b565b92915050565b7f4e487b71000000000000000000000000000000000000000000000000000000005f52602260045260245ffd5b5f6002820490506001821680611ced57607f821691505b602082108103611d0057611cff611ca9565b5b50919050565b5f82825260208201905092915050565b7f4e6f2064656c656761746563616c6c00000000000000000000000000000000005f82015250565b5f611d4a600f83611d06565b9150611d5582611d16565b602082019050919050565b5f6020820190508181035f830152611d7781611d3e565b9050919050565b7f5478206e6f7420657865637574656400000000000000000000000000000000005f82015250565b5f611db2600f83611d06565b9150611dbd82611d7e565b602082019050919050565b5f6020820190508181035f830152611ddf81611da6565b9050919050565b5f606082019050611df95f8301866118a9565b611e0660208301856118a9565b611e1360408301846118c1565b949350505050565b5f81519050611e2981611a16565b92915050565b5f60208284031215611e4457611e43611813565b5b5f611e5184828501611e1b565b91505092915050565b7f4e6f2062616c616e6365000000000000000000000000000000000000000000005f82015250565b5f611e8e600a83611d06565b9150611e9982611e5a565b602082019050919050565b5f6020820190508181035f830152611ebb81611e82565b9050919050565b5f604082019050611ed55f8301856118a9565b611ee260208301846118c1565b9392505050565b611ef281611940565b8114611efc575f5ffd5b50565b5f81519050611f0d81611ee9565b92915050565b5f60208284031215611f2857611f27611813565b5b5f611f3584828501611eff565b91505092915050565b7f5472616e73666572206661696c656400000000000000000000000000000000005f82015250565b5f611f72600f83611d06565b9150611f7d82611f3e565b602082019050919050565b5f6020820190508181035f830152611f9f81611f66565b9050919050565b7f556e6b6e6f776e207478000000000000000000000000000000000000000000005f82015250565b5f611fda600a83611d06565b9150611fe582611fa6565b602082019050919050565b5f6020820190508181035f83015261200781611fce565b9050919050565b7f496e76616c6964207374617465000000000000000000000000000000000000005f82015250565b5f612042600d83611d06565b915061204d8261200e565b602082019050919050565b5f6020820190508181035f83015261206f81612036565b9050919050565b7f4e487b71000000000000000000000000000000000000000000000000000000005f52601160045260245ffd5b5f6120ad826118b8565b91506120b8836118b8565b92508282019050808211156120d0576120cf612076565b5b92915050565b7f417574682077696e646f772065787069726564000000000000000000000000005f82015250565b5f61210a601383611d06565b9150612115826120d6565b602082019050919050565b5f6020820190508181035f830152612137816120fe565b9050919050565b5f819050919050565b6121586121538261181b565b61213e565b82525050565b5f8160601b9050919050565b5f6121748261215e565b9050919050565b5f6121858261216a565b9050919050565b61219d61219882611898565b61217b565b82525050565b5f819050919050565b6121bd6121b8826118b8565b6121a3565b82525050565b5f6121ce8286612147565b6020820191506121de828561218c565b6014820191506121ee82846121ac565b602082019150819050949350505050565b5f81905092915050565b7f19457468657265756d205369676e6564204d6573736167653a0a3332000000005f82015250565b5f61223d601c836121ff565b915061224882612209565b601c82019050919050565b5f61225d82612231565b91506122698284612147565b60208201915081905092915050565b7f496e76616c6964206b32207369676e61747572650000000000000000000000005f82015250565b5f6122ac601483611d06565b91506122b782612278565b602082019050919050565b5f6020820190508181035f8301526122d9816122a0565b9050919050565b7f4e6f2076616c69642064657374696e6174696f6e0000000000000000000000005f82015250565b5f612314601483611d06565b915061231f826122e0565b602082019050919050565b5f6020820190508181035f83015261234181612308565b9050919050565b7f6b322063616e6e6f742062652064657374696e6174696f6e00000000000000005f82015250565b5f61237c601883611d06565b915061238782612348565b602082019050919050565b5f6020820190508181035f8301526123a981612370565b9050919050565b7f4e6f7420617574686f72697a65640000000000000000000000000000000000005f82015250565b5f6123e4600e83611d06565b91506123ef826123b0565b602082019050919050565b5f6020820190508181035f830152612411816123d8565b9050919050565b7f4d696e2064656c617900000000000000000000000000000000000000000000005f82015250565b5f61244c600983611d06565b915061245782612418565b602082019050919050565b5f6020820190508181035f83015261247981612440565b9050919050565b7f57696e646f7720657870697265640000000000000000000000000000000000005f82015250565b5f6124b4600e83611d06565b91506124bf82612480565b602082019050919050565b5f6020820190508181035f8301526124e1816124a8565b9050919050565b5f81905092915050565b5f819050815f5260205f209050919050565b5f815461251081611cd6565b61251a81866124e8565b9450600182165f811461253457600181146125495761257b565b60ff198316865281151582028601935061257b565b612552856124f2565b5f5b8381101561257357815481890152600182019150602081019050612554565b838801955050505b50505092915050565b5f61258f8284612504565b915081905092915050565b7f457865637574696f6e206661696c6564000000000000000000000000000000005f82015250565b5f6125ce601083611d06565b91506125d98261259a565b602082019050919050565b5f6020820190508181035f8301526125fb816125c2565b9050919050565b7f4e6f6e63652075736564000000000000000000000000000000000000000000005f82015250565b5f612636600a83611d06565b915061264182612602565b602082019050919050565b5f6020820190508181035f8301526126638161262a565b9050919050565b828183375f83830152505050565b5f61268383856124e8565b935061269083858461266a565b82840190509392505050565b5f6126a7828a61218c565b6014820191506126b782896121ac565b6020820191506126c8828789612678565b91506126d482866121ac565b6020820191506126e48285612147565b6020820191506126f482846121ac565b60208201915081905098975050505050505050565b7f4e487b71000000000000000000000000000000000000000000000000000000005f52604160045260245ffd5b5f6020601f8301049050919050565b5f82821b905092915050565b5f600883026127807fffffffffffffffffffffffffffffffffffffffffffffffffffffffffffffffff82612745565b61278a8683612745565b95508019841693508086168417925050509392505050565b5f819050919050565b5f6127c56127c06127bb846118b8565b6127a2565b6118b8565b9050919050565b5f819050919050565b6127de836127ab565b6127f26127ea826127cc565b848454612751565b825550505050565b5f5f905090565b6128096127fa565b6128148184846127d5565b505050565b5f5b8281101561283a5761282f5f828401612801565b60018101905061281b565b505050565b601f82111561288d578282111561288c57612859816124f2565b61286283612736565b61286b85612736565b6020861015612878575f90505b80830161288782840382612819565b505050505b5b505050565b5f82821c905092915050565b5f6128ad5f1984600802612892565b1980831691505092915050565b5f6128c5838361289e565b9150826002028217905092915050565b6128de826118d0565b67ffffffffffffffff8111156128f7576128f6612709565b5b6129018254611cd6565b61290c82828561283f565b5f60209050601f83116001811461293d575f841561292b578287015190505b61293585826128ba565b86555061299c565b601f19841661294b866124f2565b5f5b828110156129725784890151825560018201915060208501945060208101905061294d565b8683101561298f578489015161298b601f89168261289e565b8355505b6001600288020188555050505b505050505050565b5f60ff82169050919050565b6129b9816129a4565b82525050565b5f6080820190506129d25f830187611c68565b6129df60208301866129b0565b6129ec6040830185611c68565b6129f96060830184611c68565b95945050505050565b50565b5f612a105f836124e8565b9150612a1b82612a02565b5f82019050919050565b5f612a2f82612a05565b9150819050919050565b7f45544820666f7277617264206661696c656400000000000000000000000000005f82015250565b5f612a6d601283611d06565b9150612a7882612a39565b602082019050919050565b5f6020820190508181035f830152612a9a81612a61565b9050919050565b7f42616420736967206c656e6774680000000000000000000000000000000000005f82015250565b5f612ad5600e83611d06565b9150612ae082612aa1565b602082019050919050565b5f6020820190508181035f830152612b0281612ac9565b905091905056fea2646970667358221220ff7ad76c80e0fe2f06add0e550d41bd5c1ce068dcab9c125be7f92ce0bb194fd64736f6c63430008230033","linkReferences":{}},"methodIdentifiers":{"AUTH_WINDOW()":"4a8bba1b","MIN_DELAY()":"9f81aed7","authorizeTransaction(bytes32,address,bytes)":"b6e030b5","defaultDropWallet()":"d29b2691","executeTransaction(bytes32)":"c69ed5f2","forwardERC20(address,bytes32)":"30399112","forwardERC721(address,uint256,bytes32)":"28acf139","k2Authority()":"31e459dc","pending(bytes32)":"1808eeb8","queueTransaction(address,uint256,bytes,uint256,bytes32)":"e57f8457","thresholdSigner()":"cdab6ce5","usedNonces(bytes32)":"feb61724"},"storageLayout":{"storage":[{"astId":64,"contract":"src/EIP777G.sol:EIP777G","label":"pending","offset":0,"slot":"0","type":"t_mapping(t_bytes32,t_struct(PendingTx)59_storage)"},{"astId":68,"contract":"src/EIP777G.sol:EIP777G","label":"usedNonces","offset":0,"slot":"1","type":"t_mapping(t_bytes32,t_bool)"}],"types":{"t_address":{"encoding":"inplace","label":"address","numberOfBytes":"20"},"t_bool":{"encoding":"inplace","label":"bool","numberOfBytes":"1"},"t_bytes32":{"encoding":"inplace","label":"bytes32","numberOfBytes":"32"},"t_bytes_storage":{"encoding":"bytes","label":"bytes","numberOfBytes":"32"},"t_mapping(t_bytes32,t_bool)":{"encoding":"mapping","key":"t_bytes32","label":"mapping(bytes32 => bool)","numberOfBytes":"32","value":"t_bool"},"t_mapping(t_bytes32,t_struct(PendingTx)59_storage)":{"encoding":"mapping","key":"t_bytes32","label":"mapping(bytes32 => struct EIP777G.PendingTx)","numberOfBytes":"32","value":"t_struct(PendingTx)59_storage"},"t_struct(PendingTx)59_storage":{"encoding":"inplace","label":"struct EIP777G.PendingTx","numberOfBytes":"224","members":[{"astId":42,"contract":"src/EIP777G.sol:EIP777G","label":"initiator","offset":0,"slot":"0","type":"t_address"},{"astId":44,"contract":"src/EIP777G.sol:EIP777G","label":"target","offset":0,"slot":"1","type":"t_address"},{"astId":46,"contract":"src/EIP777G.sol:EIP777G","label":"value","offset":0,"slot":"2","type":"t_uint256"},{"astId":48,"contract":"src/EIP777G.sol:EIP777G","label":"callData","offset":0,"slot":"3","type":"t_bytes_storage"},{"astId":50,"contract":"src/EIP777G.sol:EIP777G","label":"declaredGas","offset":0,"slot":"4","type":"t_uint256"},{"astId":52,"contract":"src/EIP777G.sol:EIP777G","label":"submittedAt","offset":0,"slot":"5","type":"t_uint256"},{"astId":54,"contract":"src/EIP777G.sol:EIP777G","label":"authorized","offset":0,"slot":"6","type":"t_bool"},{"astId":56,"contract":"src/EIP777G.sol:EIP777G","label":"executed","offset":1,"slot":"6","type":"t_bool"},{"astId":58,"contract":"src/EIP777G.sol:EIP777G","label":"destination","offset":2,"slot":"6","type":"t_address"}]},"t_uint256":{"encoding":"inplace","label":"uint256","numberOfBytes":"32"}}},"id":0}